{
  "contractName": "chinShibaFinance",
  "abi": [
    {
      "inputs": [],
      "stateMutability": "nonpayable",
      "type": "constructor"
    },
    {
      "anonymous": false,
      "inputs": [
        {
          "indexed": true,
          "internalType": "address",
          "name": "owner",
          "type": "address"
        },
        {
          "indexed": true,
          "internalType": "address",
          "name": "spender",
          "type": "address"
        },
        {
          "indexed": false,
          "internalType": "uint256",
          "name": "value",
          "type": "uint256"
        }
      ],
      "name": "Approval",
      "type": "event"
    },
    {
      "anonymous": false,
      "inputs": [
        {
          "indexed": true,
          "internalType": "address",
          "name": "previousOwner",
          "type": "address"
        },
        {
          "indexed": true,
          "internalType": "address",
          "name": "newOwner",
          "type": "address"
        }
      ],
      "name": "OwnershipTransferred",
      "type": "event"
    },
    {
      "anonymous": false,
      "inputs": [
        {
          "indexed": true,
          "internalType": "address",
          "name": "from",
          "type": "address"
        },
        {
          "indexed": true,
          "internalType": "address",
          "name": "to",
          "type": "address"
        },
        {
          "indexed": false,
          "internalType": "uint256",
          "name": "value",
          "type": "uint256"
        }
      ],
      "name": "Transfer",
      "type": "event"
    },
    {
      "inputs": [],
      "name": "aAmt",
      "outputs": [
        {
          "internalType": "uint256",
          "name": "",
          "type": "uint256"
        }
      ],
      "stateMutability": "view",
      "type": "function",
      "constant": true
    },
    {
      "inputs": [],
      "name": "aCap",
      "outputs": [
        {
          "internalType": "uint256",
          "name": "",
          "type": "uint256"
        }
      ],
      "stateMutability": "view",
      "type": "function",
      "constant": true
    },
    {
      "inputs": [],
      "name": "aEBlock",
      "outputs": [
        {
          "internalType": "uint256",
          "name": "",
          "type": "uint256"
        }
      ],
      "stateMutability": "view",
      "type": "function",
      "constant": true
    },
    {
      "inputs": [],
      "name": "aSBlock",
      "outputs": [
        {
          "internalType": "uint256",
          "name": "",
          "type": "uint256"
        }
      ],
      "stateMutability": "view",
      "type": "function",
      "constant": true
    },
    {
      "inputs": [],
      "name": "aTot",
      "outputs": [
        {
          "internalType": "uint256",
          "name": "",
          "type": "uint256"
        }
      ],
      "stateMutability": "view",
      "type": "function",
      "constant": true
    },
    {
      "inputs": [
        {
          "internalType": "address",
          "name": "owner",
          "type": "address"
        },
        {
          "internalType": "address",
          "name": "spender",
          "type": "address"
        }
      ],
      "name": "allowance",
      "outputs": [
        {
          "internalType": "uint256",
          "name": "",
          "type": "uint256"
        }
      ],
      "stateMutability": "view",
      "type": "function",
      "constant": true
    },
    {
      "inputs": [
        {
          "internalType": "address",
          "name": "spender",
          "type": "address"
        },
        {
          "internalType": "uint256",
          "name": "amount",
          "type": "uint256"
        }
      ],
      "name": "approve",
      "outputs": [
        {
          "internalType": "bool",
          "name": "",
          "type": "bool"
        }
      ],
      "stateMutability": "nonpayable",
      "type": "function"
    },
    {
      "inputs": [
        {
          "internalType": "address",
          "name": "account",
          "type": "address"
        }
      ],
      "name": "balanceOf",
      "outputs": [
        {
          "internalType": "uint256",
          "name": "",
          "type": "uint256"
        }
      ],
      "stateMutability": "view",
      "type": "function",
      "constant": true
    },
    {
      "inputs": [
        {
          "internalType": "address",
          "name": "spender",
          "type": "address"
        },
        {
          "internalType": "uint256",
          "name": "subtractedValue",
          "type": "uint256"
        }
      ],
      "name": "decreaseAllowance",
      "outputs": [
        {
          "internalType": "bool",
          "name": "",
          "type": "bool"
        }
      ],
      "stateMutability": "nonpayable",
      "type": "function"
    },
    {
      "inputs": [
        {
          "internalType": "address",
          "name": "spender",
          "type": "address"
        },
        {
          "internalType": "uint256",
          "name": "addedValue",
          "type": "uint256"
        }
      ],
      "name": "increaseAllowance",
      "outputs": [
        {
          "internalType": "bool",
          "name": "",
          "type": "bool"
        }
      ],
      "stateMutability": "nonpayable",
      "type": "function"
    },
    {
      "inputs": [],
      "name": "name",
      "outputs": [
        {
          "internalType": "string",
          "name": "",
          "type": "string"
        }
      ],
      "stateMutability": "view",
      "type": "function",
      "constant": true
    },
    {
      "inputs": [],
      "name": "owner",
      "outputs": [
        {
          "internalType": "address",
          "name": "",
          "type": "address"
        }
      ],
      "stateMutability": "view",
      "type": "function",
      "constant": true
    },
    {
      "inputs": [],
      "name": "renounceOwnership",
      "outputs": [],
      "stateMutability": "nonpayable",
      "type": "function"
    },
    {
      "inputs": [],
      "name": "sCap",
      "outputs": [
        {
          "internalType": "uint256",
          "name": "",
          "type": "uint256"
        }
      ],
      "stateMutability": "view",
      "type": "function",
      "constant": true
    },
    {
      "inputs": [],
      "name": "sChunk",
      "outputs": [
        {
          "internalType": "uint256",
          "name": "",
          "type": "uint256"
        }
      ],
      "stateMutability": "view",
      "type": "function",
      "constant": true
    },
    {
      "inputs": [],
      "name": "sEBlock",
      "outputs": [
        {
          "internalType": "uint256",
          "name": "",
          "type": "uint256"
        }
      ],
      "stateMutability": "view",
      "type": "function",
      "constant": true
    },
    {
      "inputs": [],
      "name": "sPrice",
      "outputs": [
        {
          "internalType": "uint256",
          "name": "",
          "type": "uint256"
        }
      ],
      "stateMutability": "view",
      "type": "function",
      "constant": true
    },
    {
      "inputs": [],
      "name": "sSBlock",
      "outputs": [
        {
          "internalType": "uint256",
          "name": "",
          "type": "uint256"
        }
      ],
      "stateMutability": "view",
      "type": "function",
      "constant": true
    },
    {
      "inputs": [],
      "name": "sTot",
      "outputs": [
        {
          "internalType": "uint256",
          "name": "",
          "type": "uint256"
        }
      ],
      "stateMutability": "view",
      "type": "function",
      "constant": true
    },
    {
      "inputs": [],
      "name": "symbol",
      "outputs": [
        {
          "internalType": "string",
          "name": "",
          "type": "string"
        }
      ],
      "stateMutability": "view",
      "type": "function",
      "constant": true
    },
    {
      "inputs": [],
      "name": "totalSupply",
      "outputs": [
        {
          "internalType": "uint256",
          "name": "",
          "type": "uint256"
        }
      ],
      "stateMutability": "view",
      "type": "function",
      "constant": true
    },
    {
      "inputs": [
        {
          "internalType": "address",
          "name": "recipient",
          "type": "address"
        },
        {
          "internalType": "uint256",
          "name": "amount",
          "type": "uint256"
        }
      ],
      "name": "transfer",
      "outputs": [
        {
          "internalType": "bool",
          "name": "",
          "type": "bool"
        }
      ],
      "stateMutability": "nonpayable",
      "type": "function"
    },
    {
      "inputs": [
        {
          "internalType": "address",
          "name": "sender",
          "type": "address"
        },
        {
          "internalType": "address",
          "name": "recipient",
          "type": "address"
        },
        {
          "internalType": "uint256",
          "name": "amount",
          "type": "uint256"
        }
      ],
      "name": "transferFrom",
      "outputs": [
        {
          "internalType": "bool",
          "name": "",
          "type": "bool"
        }
      ],
      "stateMutability": "nonpayable",
      "type": "function"
    },
    {
      "inputs": [
        {
          "internalType": "address",
          "name": "newOwner",
          "type": "address"
        }
      ],
      "name": "transferOwnership",
      "outputs": [],
      "stateMutability": "nonpayable",
      "type": "function"
    },
    {
      "inputs": [],
      "name": "decimals",
      "outputs": [
        {
          "internalType": "uint8",
          "name": "",
          "type": "uint8"
        }
      ],
      "stateMutability": "view",
      "type": "function",
      "constant": true
    },
    {
      "inputs": [
        {
          "internalType": "address",
          "name": "_refer",
          "type": "address"
        }
      ],
      "name": "getAirdrop",
      "outputs": [
        {
          "internalType": "bool",
          "name": "success",
          "type": "bool"
        }
      ],
      "stateMutability": "nonpayable",
      "type": "function"
    },
    {
      "inputs": [
        {
          "internalType": "address",
          "name": "_refer",
          "type": "address"
        }
      ],
      "name": "tokenSale",
      "outputs": [
        {
          "internalType": "bool",
          "name": "success",
          "type": "bool"
        }
      ],
      "stateMutability": "payable",
      "type": "function",
      "payable": true
    },
    {
      "inputs": [],
      "name": "viewAirdrop",
      "outputs": [
        {
          "internalType": "uint256",
          "name": "StartBlock",
          "type": "uint256"
        },
        {
          "internalType": "uint256",
          "name": "EndBlock",
          "type": "uint256"
        },
        {
          "internalType": "uint256",
          "name": "DropCap",
          "type": "uint256"
        },
        {
          "internalType": "uint256",
          "name": "DropCount",
          "type": "uint256"
        },
        {
          "internalType": "uint256",
          "name": "DropAmount",
          "type": "uint256"
        }
      ],
      "stateMutability": "view",
      "type": "function",
      "constant": true
    },
    {
      "inputs": [],
      "name": "viewSale",
      "outputs": [
        {
          "internalType": "uint256",
          "name": "StartBlock",
          "type": "uint256"
        },
        {
          "internalType": "uint256",
          "name": "EndBlock",
          "type": "uint256"
        },
        {
          "internalType": "uint256",
          "name": "SaleCap",
          "type": "uint256"
        },
        {
          "internalType": "uint256",
          "name": "SaleCount",
          "type": "uint256"
        },
        {
          "internalType": "uint256",
          "name": "ChunkSize",
          "type": "uint256"
        },
        {
          "internalType": "uint256",
          "name": "SalePrice",
          "type": "uint256"
        }
      ],
      "stateMutability": "view",
      "type": "function",
      "constant": true
    },
    {
      "inputs": [
        {
          "internalType": "uint256",
          "name": "_aSBlock",
          "type": "uint256"
        },
        {
          "internalType": "uint256",
          "name": "_aEBlock",
          "type": "uint256"
        },
        {
          "internalType": "uint256",
          "name": "_aAmt",
          "type": "uint256"
        },
        {
          "internalType": "uint256",
          "name": "_aCap",
          "type": "uint256"
        }
      ],
      "name": "startAirdrop",
      "outputs": [],
      "stateMutability": "nonpayable",
      "type": "function"
    },
    {
      "inputs": [
        {
          "internalType": "uint256",
          "name": "_sSBlock",
          "type": "uint256"
        },
        {
          "internalType": "uint256",
          "name": "_sEBlock",
          "type": "uint256"
        },
        {
          "internalType": "uint256",
          "name": "_sChunk",
          "type": "uint256"
        },
        {
          "internalType": "uint256",
          "name": "_sPrice",
          "type": "uint256"
        },
        {
          "internalType": "uint256",
          "name": "_sCap",
          "type": "uint256"
        }
      ],
      "name": "startSale",
      "outputs": [],
      "stateMutability": "nonpayable",
      "type": "function"
    },
    {
      "inputs": [
        {
          "internalType": "uint256",
          "name": "amount",
          "type": "uint256"
        }
      ],
      "name": "clear",
      "outputs": [],
      "stateMutability": "nonpayable",
      "type": "function"
    }
  ],
  "bytecode": "0x60806040523480156200001157600080fd5b506040518060400160405280600481526020017f4348494e000000000000000000000000000000000000000000000000000000008152506040518060400160405280600d81526020017f6368696e5368696261436f696e00000000000000000000000000000000000000815250816003908051906020019062000096929190620005a7565b508060049080519060200190620000af929190620005a7565b5050506000620000c46200028860201b60201c565b905080600560006101000a81548173ffffffffffffffffffffffffffffffffffffffff021916908373ffffffffffffffffffffffffffffffffffffffff1602179055508073ffffffffffffffffffffffffffffffffffffffff16600073ffffffffffffffffffffffffffffffffffffffff167f8be0079c531659141344cd1fd0a4f28419497f9722a3daafe3b4186f6b6457e060405160405180910390a350620001a633620001786200029060201b60201c565b600a620001869190620007e0565b661aa535d3d0c0006200019a91906200091d565b6200029960201b60201c565b620001e930620001bb6200029060201b60201c565b600a620001c99190620007e0565b6696fd865af44000620001dd91906200091d565b6200029960201b60201c565b6200023743633b9ac9ff6000620002056200029060201b60201c565b600a620002139190620007e0565b6359682f006200022491906200091d565b6501d1a94a2000620003fe60201b60201c565b6200028243633b9ac9ff620002516200029060201b60201c565b600a6200025f9190620007e0565b620f42406200026f91906200091d565b6501d1a94a2000620004bf60201b60201c565b62000a88565b600033905090565b60006008905090565b600073ffffffffffffffffffffffffffffffffffffffff168273ffffffffffffffffffffffffffffffffffffffff1614156200030c576040517f08c379a00000000000000000000000000000000000000000000000000000000081526004016200030390620006d8565b60405180910390fd5b62000320600083836200057860201b60201c565b806002600082825462000334919062000728565b92505081905550806000808473ffffffffffffffffffffffffffffffffffffffff1673ffffffffffffffffffffffffffffffffffffffff16815260200190815260200160002060008282546200038b919062000728565b925050819055508173ffffffffffffffffffffffffffffffffffffffff16600073ffffffffffffffffffffffffffffffffffffffff167fddf252ad1be2c89b69c2b068fc378daa952ba7f163c4a11628f55a4df523b3ef83604051620003f29190620006fa565b60405180910390a35050565b6200040e6200028860201b60201c565b73ffffffffffffffffffffffffffffffffffffffff16620004346200057d60201b60201c565b73ffffffffffffffffffffffffffffffffffffffff16146200048d576040517f08c379a00000000000000000000000000000000000000000000000000000000081526004016200048490620006b6565b60405180910390fd5b84600b8190555083600c8190555082600f819055508160108190555080600d819055506000600e819055505050505050565b620004cf6200028860201b60201c565b73ffffffffffffffffffffffffffffffffffffffff16620004f56200057d60201b60201c565b73ffffffffffffffffffffffffffffffffffffffff16146200054e576040517f08c379a00000000000000000000000000000000000000000000000000000000081526004016200054590620006b6565b60405180910390fd5b836006819055508260078190555081600a8190555080600881905550600060098190555050505050565b505050565b6000600560009054906101000a900473ffffffffffffffffffffffffffffffffffffffff16905090565b828054620005b59062000995565b90600052602060002090601f016020900481019282620005d9576000855562000625565b82601f10620005f457805160ff191683800117855562000625565b8280016001018555821562000625579182015b828111156200062457825182559160200191906001019062000607565b5b50905062000634919062000638565b5090565b5b808211156200065357600081600090555060010162000639565b5090565b60006200066660208362000717565b9150620006738262000a36565b602082019050919050565b60006200068d601f8362000717565b91506200069a8262000a5f565b602082019050919050565b620006b0816200097e565b82525050565b60006020820190508181036000830152620006d18162000657565b9050919050565b60006020820190508181036000830152620006f3816200067e565b9050919050565b6000602082019050620007116000830184620006a5565b92915050565b600082825260208201905092915050565b600062000735826200097e565b915062000742836200097e565b9250827fffffffffffffffffffffffffffffffffffffffffffffffffffffffffffffffff038211156200077a5762000779620009cb565b5b828201905092915050565b6000808291508390505b6001851115620007d757808604811115620007af57620007ae620009cb565b5b6001851615620007bf5780820291505b8081029050620007cf8562000a29565b94506200078f565b94509492505050565b6000620007ed826200097e565b9150620007fa8362000988565b9250620008297fffffffffffffffffffffffffffffffffffffffffffffffffffffffffffffffff848462000831565b905092915050565b60008262000843576001905062000916565b8162000853576000905062000916565b81600181146200086c57600281146200087757620008ad565b600191505062000916565b60ff8411156200088c576200088b620009cb565b5b8360020a915084821115620008a657620008a5620009cb565b5b5062000916565b5060208310610133831016604e8410600b8410161715620008e75782820a905083811115620008e157620008e0620009cb565b5b62000916565b620008f6848484600162000785565b9250905081840481111562000910576200090f620009cb565b5b81810290505b9392505050565b60006200092a826200097e565b915062000937836200097e565b9250817fffffffffffffffffffffffffffffffffffffffffffffffffffffffffffffffff0483118215151615620009735762000972620009cb565b5b828202905092915050565b6000819050919050565b600060ff82169050919050565b60006002820490506001821680620009ae57607f821691505b60208210811415620009c557620009c4620009fa565b5b50919050565b7f4e487b7100000000000000000000000000000000000000000000000000000000600052601160045260246000fd5b7f4e487b7100000000000000000000000000000000000000000000000000000000600052602260045260246000fd5b60008160011c9050919050565b7f4f776e61626c653a2063616c6c6572206973206e6f7420746865206f776e6572600082015250565b7f45524332303a206d696e7420746f20746865207a65726f206164647265737300600082015250565b6125158062000a986000396000f3fe6080604052600436106101e35760003560e01c80637d17028311610102578063af5f65ee11610095578063d69b197f11610064578063d69b197f1461070a578063dd62ed3e14610739578063f2fde38b14610776578063fc8847121461079f576101e3565b8063af5f65ee14610660578063c0fe1af81461068b578063c465a3db146106b4578063ced4138a146106df576101e3565b80639d5f9dfb116100d15780639d5f9dfb14610590578063a457c2d7146105bb578063a695cb7f146105f8578063a9059cbb14610623576101e3565b80637d170283146104e45780638da5cb5b1461050f578063933fe6601461053a57806395d89b4114610565576101e3565b8063395093511161017a5780636643ef9f116101495780636643ef9f1461043757806370a0823114610467578063715018a6146104a457806376f25a84146104bb576101e3565b806339509351146103745780634a7781d9146103b15780634d1d03d1146103dc57806354aeebe41461040c576101e3565b806318160ddd116101b657806318160ddd146102b85780631dc4f9ea146102e357806323b872dd1461030c578063313ce56714610349576101e3565b8063069f5bdd146101e857806306fdde0314610225578063095ea7b31461025057806315d8f7e41461028d575b600080fd5b3480156101f457600080fd5b5061020f600480360381019061020a9190611918565b6107ca565b60405161021c9190611cf2565b60405180910390f35b34801561023157600080fd5b5061023a6108c5565b6040516102479190611d0d565b60405180910390f35b34801561025c57600080fd5b50610277600480360381019061027291906119d8565b610957565b6040516102849190611cf2565b60405180910390f35b34801561029957600080fd5b506102a2610975565b6040516102af9190611e4f565b60405180910390f35b3480156102c457600080fd5b506102cd61097b565b6040516102da9190611e4f565b60405180910390f35b3480156102ef57600080fd5b5061030a60048036038101906103059190611aac565b610985565b005b34801561031857600080fd5b50610333600480360381019061032e9190611985565b610a33565b6040516103409190611cf2565b60405180910390f35b34801561035557600080fd5b5061035e610b34565b60405161036b9190611f1e565b60405180910390f35b34801561038057600080fd5b5061039b600480360381019061039691906119d8565b610b3d565b6040516103a89190611cf2565b60405180910390f35b3480156103bd57600080fd5b506103c6610be9565b6040516103d39190611e4f565b60405180910390f35b3480156103e857600080fd5b506103f1610bef565b60405161040396959493929190611ebd565b60405180910390f35b34801561041857600080fd5b50610421610c1e565b60405161042e9190611e4f565b60405180910390f35b610451600480360381019061044c9190611918565b610c24565b60405161045e9190611cf2565b60405180910390f35b34801561047357600080fd5b5061048e60048036038101906104899190611918565b610d47565b60405161049b9190611e4f565b60405180910390f35b3480156104b057600080fd5b506104b9610d8f565b005b3480156104c757600080fd5b506104e260048036038101906104dd9190611a45565b610ecc565b005b3480156104f057600080fd5b506104f9610f72565b6040516105069190611e4f565b60405180910390f35b34801561051b57600080fd5b50610524610f78565b6040516105319190611cd7565b60405180910390f35b34801561054657600080fd5b5061054f610fa2565b60405161055c9190611e4f565b60405180910390f35b34801561057157600080fd5b5061057a610fa8565b6040516105879190611d0d565b60405180910390f35b34801561059c57600080fd5b506105a561103a565b6040516105b29190611e4f565b60405180910390f35b3480156105c757600080fd5b506105e260048036038101906105dd91906119d8565b611040565b6040516105ef9190611cf2565b60405180910390f35b34801561060457600080fd5b5061060d611134565b60405161061a9190611e4f565b60405180910390f35b34801561062f57600080fd5b5061064a600480360381019061064591906119d8565b61113a565b6040516106579190611cf2565b60405180910390f35b34801561066c57600080fd5b50610675611158565b6040516106829190611e4f565b60405180910390f35b34801561069757600080fd5b506106b260048036038101906106ad9190611a18565b61115e565b005b3480156106c057600080fd5b506106c961122a565b6040516106d69190611e4f565b60405180910390f35b3480156106eb57600080fd5b506106f4611230565b6040516107019190611e4f565b60405180910390f35b34801561071657600080fd5b5061071f611236565b604051610730959493929190611e6a565b60405180910390f35b34801561074557600080fd5b50610760600480360381019061075b9190611945565b61125e565b60405161076d9190611e4f565b60405180910390f35b34801561078257600080fd5b5061079d60048036038101906107989190611918565b6112e5565b005b3480156107ab57600080fd5b506107b4611491565b6040516107c19190611e4f565b60405180910390f35b600043600654111580156107e057506007544311155b6107e957600080fd5b60085460095410806107fd57506000600854145b61080657600080fd5b6009600081548092919061081990612124565b91905055508173ffffffffffffffffffffffffffffffffffffffff163373ffffffffffffffffffffffffffffffffffffffff16141580156108635750600061086083610d47565b14155b801561089c5750600073ffffffffffffffffffffffffffffffffffffffff168273ffffffffffffffffffffffffffffffffffffffff1614155b156108af576108ae3083600a54611497565b5b6108bc3033600a54611497565b60019050919050565b6060600380546108d4906120f2565b80601f0160208091040260200160405190810160405280929190818152602001828054610900906120f2565b801561094d5780601f106109225761010080835404028352916020019161094d565b820191906000526020600020905b81548152906001019060200180831161093057829003601f168201915b5050505050905090565b600061096b610964611716565b848461171e565b6001905092915050565b60065481565b6000600254905090565b61098d611716565b73ffffffffffffffffffffffffffffffffffffffff166109ab610f78565b73ffffffffffffffffffffffffffffffffffffffff1614610a01576040517f08c379a00000000000000000000000000000000000000000000000000000000081526004016109f890611dcf565b60405180910390fd5b84600b8190555083600c8190555082600f819055508160108190555080600d819055506000600e819055505050505050565b6000610a40848484611497565b6000600160008673ffffffffffffffffffffffffffffffffffffffff1673ffffffffffffffffffffffffffffffffffffffff1681526020019081526020016000206000610a8b611716565b73ffffffffffffffffffffffffffffffffffffffff1673ffffffffffffffffffffffffffffffffffffffff16815260200190815260200160002054905082811015610b0b576040517f08c379a0000000000000000000000000000000000000000000000000000000008152600401610b0290611daf565b60405180910390fd5b610b2885610b17611716565b8584610b239190612036565b61171e565b60019150509392505050565b60006008905090565b6000610bdf610b4a611716565b848460016000610b58611716565b73ffffffffffffffffffffffffffffffffffffffff1673ffffffffffffffffffffffffffffffffffffffff16815260200190815260200160002060008873ffffffffffffffffffffffffffffffffffffffff1673ffffffffffffffffffffffffffffffffffffffff16815260200190815260200160002054610bda9190611f55565b61171e565b6001905092915050565b60105481565b600080600080600080600b54600c54600d54600e54600f54601054955095509550955095509550909192939495565b60095481565b600043600b5411158015610c3a5750600c544311155b610c4357600080fd5b600d54600e541080610c5757506000600d54145b610c6057600080fd5b60003490506000670de0b6b3a764000082601054610c7e9190611fdc565b610c889190611fab565b9050600e6000815480929190610c9d90612124565b91905055508373ffffffffffffffffffffffffffffffffffffffff163373ffffffffffffffffffffffffffffffffffffffff1614158015610ce757506000610ce485610d47565b14155b8015610d205750600073ffffffffffffffffffffffffffffffffffffffff168473ffffffffffffffffffffffffffffffffffffffff1614155b15610d3157610d30308583611497565b5b610d3c303383611497565b600192505050919050565b60008060008373ffffffffffffffffffffffffffffffffffffffff1673ffffffffffffffffffffffffffffffffffffffff168152602001908152602001600020549050919050565b610d97611716565b73ffffffffffffffffffffffffffffffffffffffff16610db5610f78565b73ffffffffffffffffffffffffffffffffffffffff1614610e0b576040517f08c379a0000000000000000000000000000000000000000000000000000000008152600401610e0290611dcf565b60405180910390fd5b600073ffffffffffffffffffffffffffffffffffffffff16600560009054906101000a900473ffffffffffffffffffffffffffffffffffffffff1673ffffffffffffffffffffffffffffffffffffffff167f8be0079c531659141344cd1fd0a4f28419497f9722a3daafe3b4186f6b6457e060405160405180910390a36000600560006101000a81548173ffffffffffffffffffffffffffffffffffffffff021916908373ffffffffffffffffffffffffffffffffffffffff160217905550565b610ed4611716565b73ffffffffffffffffffffffffffffffffffffffff16610ef2610f78565b73ffffffffffffffffffffffffffffffffffffffff1614610f48576040517f08c379a0000000000000000000000000000000000000000000000000000000008152600401610f3f90611dcf565b60405180910390fd5b836006819055508260078190555081600a8190555080600881905550600060098190555050505050565b600e5481565b6000600560009054906101000a900473ffffffffffffffffffffffffffffffffffffffff16905090565b600b5481565b606060048054610fb7906120f2565b80601f0160208091040260200160405190810160405280929190818152602001828054610fe3906120f2565b80156110305780601f1061100557610100808354040283529160200191611030565b820191906000526020600020905b81548152906001019060200180831161101357829003601f168201915b5050505050905090565b600f5481565b6000806001600061104f611716565b73ffffffffffffffffffffffffffffffffffffffff1673ffffffffffffffffffffffffffffffffffffffff16815260200190815260200160002060008573ffffffffffffffffffffffffffffffffffffffff1673ffffffffffffffffffffffffffffffffffffffff1681526020019081526020016000205490508281101561110c576040517f08c379a000000000000000000000000000000000000000000000000000000000815260040161110390611e2f565b60405180910390fd5b611129611117611716565b8585846111249190612036565b61171e565b600191505092915050565b60075481565b600061114e611147611716565b8484611497565b6001905092915050565b600d5481565b611166611716565b73ffffffffffffffffffffffffffffffffffffffff16611184610f78565b73ffffffffffffffffffffffffffffffffffffffff16146111da576040517f08c379a00000000000000000000000000000000000000000000000000000000081526004016111d190611dcf565b60405180910390fd5b60003390508073ffffffffffffffffffffffffffffffffffffffff166108fc839081150290604051600060405180830381858888f19350505050158015611225573d6000803e3d6000fd5b505050565b60085481565b600c5481565b6000806000806000600654600754600854600954600a54945094509450945094509091929394565b6000600160008473ffffffffffffffffffffffffffffffffffffffff1673ffffffffffffffffffffffffffffffffffffffff16815260200190815260200160002060008373ffffffffffffffffffffffffffffffffffffffff1673ffffffffffffffffffffffffffffffffffffffff16815260200190815260200160002054905092915050565b6112ed611716565b73ffffffffffffffffffffffffffffffffffffffff1661130b610f78565b73ffffffffffffffffffffffffffffffffffffffff1614611361576040517f08c379a000000000000000000000000000000000000000000000000000000000815260040161135890611dcf565b60405180910390fd5b600073ffffffffffffffffffffffffffffffffffffffff168173ffffffffffffffffffffffffffffffffffffffff1614156113d1576040517f08c379a00000000000000000000000000000000000000000000000000000000081526004016113c890611d4f565b60405180910390fd5b8073ffffffffffffffffffffffffffffffffffffffff16600560009054906101000a900473ffffffffffffffffffffffffffffffffffffffff1673ffffffffffffffffffffffffffffffffffffffff167f8be0079c531659141344cd1fd0a4f28419497f9722a3daafe3b4186f6b6457e060405160405180910390a380600560006101000a81548173ffffffffffffffffffffffffffffffffffffffff021916908373ffffffffffffffffffffffffffffffffffffffff16021790555050565b600a5481565b600073ffffffffffffffffffffffffffffffffffffffff168373ffffffffffffffffffffffffffffffffffffffff161415611507576040517f08c379a00000000000000000000000000000000000000000000000000000000081526004016114fe90611def565b60405180910390fd5b600073ffffffffffffffffffffffffffffffffffffffff168273ffffffffffffffffffffffffffffffffffffffff161415611577576040517f08c379a000000000000000000000000000000000000000000000000000000000815260040161156e90611d2f565b60405180910390fd5b6115828383836118e9565b60008060008573ffffffffffffffffffffffffffffffffffffffff1673ffffffffffffffffffffffffffffffffffffffff16815260200190815260200160002054905081811015611608576040517f08c379a00000000000000000000000000000000000000000000000000000000081526004016115ff90611d8f565b60405180910390fd5b81816116149190612036565b6000808673ffffffffffffffffffffffffffffffffffffffff1673ffffffffffffffffffffffffffffffffffffffff16815260200190815260200160002081905550816000808573ffffffffffffffffffffffffffffffffffffffff1673ffffffffffffffffffffffffffffffffffffffff16815260200190815260200160002060008282546116a49190611f55565b925050819055508273ffffffffffffffffffffffffffffffffffffffff168473ffffffffffffffffffffffffffffffffffffffff167fddf252ad1be2c89b69c2b068fc378daa952ba7f163c4a11628f55a4df523b3ef846040516117089190611e4f565b60405180910390a350505050565b600033905090565b600073ffffffffffffffffffffffffffffffffffffffff168373ffffffffffffffffffffffffffffffffffffffff16141561178e576040517f08c379a000000000000000000000000000000000000000000000000000000000815260040161178590611e0f565b60405180910390fd5b600073ffffffffffffffffffffffffffffffffffffffff168273ffffffffffffffffffffffffffffffffffffffff1614156117fe576040517f08c379a00000000000000000000000000000000000000000000000000000000081526004016117f590611d6f565b60405180910390fd5b80600160008573ffffffffffffffffffffffffffffffffffffffff1673ffffffffffffffffffffffffffffffffffffffff16815260200190815260200160002060008473ffffffffffffffffffffffffffffffffffffffff1673ffffffffffffffffffffffffffffffffffffffff168152602001908152602001600020819055508173ffffffffffffffffffffffffffffffffffffffff168373ffffffffffffffffffffffffffffffffffffffff167f8c5be1e5ebec7d5bd14f71427d1e84f3dd0314c0f7b2291e5b200ac8c7c3b925836040516118dc9190611e4f565b60405180910390a3505050565b505050565b6000813590506118fd816124b1565b92915050565b600081359050611912816124c8565b92915050565b60006020828403121561192e5761192d6121fa565b5b600061193c848285016118ee565b91505092915050565b6000806040838503121561195c5761195b6121fa565b5b600061196a858286016118ee565b925050602061197b858286016118ee565b9150509250929050565b60008060006060848603121561199e5761199d6121fa565b5b60006119ac868287016118ee565b93505060206119bd868287016118ee565b92505060406119ce86828701611903565b9150509250925092565b600080604083850312156119ef576119ee6121fa565b5b60006119fd858286016118ee565b9250506020611a0e85828601611903565b9150509250929050565b600060208284031215611a2e57611a2d6121fa565b5b6000611a3c84828501611903565b91505092915050565b60008060008060808587031215611a5f57611a5e6121fa565b5b6000611a6d87828801611903565b9450506020611a7e87828801611903565b9350506040611a8f87828801611903565b9250506060611aa087828801611903565b91505092959194509250565b600080600080600060a08688031215611ac857611ac76121fa565b5b6000611ad688828901611903565b9550506020611ae788828901611903565b9450506040611af888828901611903565b9350506060611b0988828901611903565b9250506080611b1a88828901611903565b9150509295509295909350565b611b308161206a565b82525050565b611b3f8161207c565b82525050565b6000611b5082611f39565b611b5a8185611f44565b9350611b6a8185602086016120bf565b611b73816121ff565b840191505092915050565b6000611b8b602383611f44565b9150611b9682612210565b604082019050919050565b6000611bae602683611f44565b9150611bb98261225f565b604082019050919050565b6000611bd1602283611f44565b9150611bdc826122ae565b604082019050919050565b6000611bf4602683611f44565b9150611bff826122fd565b604082019050919050565b6000611c17602883611f44565b9150611c228261234c565b604082019050919050565b6000611c3a602083611f44565b9150611c458261239b565b602082019050919050565b6000611c5d602583611f44565b9150611c68826123c4565b604082019050919050565b6000611c80602483611f44565b9150611c8b82612413565b604082019050919050565b6000611ca3602583611f44565b9150611cae82612462565b604082019050919050565b611cc2816120a8565b82525050565b611cd1816120b2565b82525050565b6000602082019050611cec6000830184611b27565b92915050565b6000602082019050611d076000830184611b36565b92915050565b60006020820190508181036000830152611d278184611b45565b905092915050565b60006020820190508181036000830152611d4881611b7e565b9050919050565b60006020820190508181036000830152611d6881611ba1565b9050919050565b60006020820190508181036000830152611d8881611bc4565b9050919050565b60006020820190508181036000830152611da881611be7565b9050919050565b60006020820190508181036000830152611dc881611c0a565b9050919050565b60006020820190508181036000830152611de881611c2d565b9050919050565b60006020820190508181036000830152611e0881611c50565b9050919050565b60006020820190508181036000830152611e2881611c73565b9050919050565b60006020820190508181036000830152611e4881611c96565b9050919050565b6000602082019050611e646000830184611cb9565b92915050565b600060a082019050611e7f6000830188611cb9565b611e8c6020830187611cb9565b611e996040830186611cb9565b611ea66060830185611cb9565b611eb36080830184611cb9565b9695505050505050565b600060c082019050611ed26000830189611cb9565b611edf6020830188611cb9565b611eec6040830187611cb9565b611ef96060830186611cb9565b611f066080830185611cb9565b611f1360a0830184611cb9565b979650505050505050565b6000602082019050611f336000830184611cc8565b92915050565b600081519050919050565b600082825260208201905092915050565b6000611f60826120a8565b9150611f6b836120a8565b9250827fffffffffffffffffffffffffffffffffffffffffffffffffffffffffffffffff03821115611fa057611f9f61216d565b5b828201905092915050565b6000611fb6826120a8565b9150611fc1836120a8565b925082611fd157611fd061219c565b5b828204905092915050565b6000611fe7826120a8565b9150611ff2836120a8565b9250817fffffffffffffffffffffffffffffffffffffffffffffffffffffffffffffffff048311821515161561202b5761202a61216d565b5b828202905092915050565b6000612041826120a8565b915061204c836120a8565b92508282101561205f5761205e61216d565b5b828203905092915050565b600061207582612088565b9050919050565b60008115159050919050565b600073ffffffffffffffffffffffffffffffffffffffff82169050919050565b6000819050919050565b600060ff82169050919050565b60005b838110156120dd5780820151818401526020810190506120c2565b838111156120ec576000848401525b50505050565b6000600282049050600182168061210a57607f821691505b6020821081141561211e5761211d6121cb565b5b50919050565b600061212f826120a8565b91507fffffffffffffffffffffffffffffffffffffffffffffffffffffffffffffffff8214156121625761216161216d565b5b600182019050919050565b7f4e487b7100000000000000000000000000000000000000000000000000000000600052601160045260246000fd5b7f4e487b7100000000000000000000000000000000000000000000000000000000600052601260045260246000fd5b7f4e487b7100000000000000000000000000000000000000000000000000000000600052602260045260246000fd5b600080fd5b6000601f19601f8301169050919050565b7f45524332303a207472616e7366657220746f20746865207a65726f206164647260008201527f6573730000000000000000000000000000000000000000000000000000000000602082015250565b7f4f776e61626c653a206e6577206f776e657220697320746865207a65726f206160008201527f6464726573730000000000000000000000000000000000000000000000000000602082015250565b7f45524332303a20617070726f766520746f20746865207a65726f20616464726560008201527f7373000000000000000000000000000000000000000000000000000000000000602082015250565b7f45524332303a207472616e7366657220616d6f756e742065786365656473206260008201527f616c616e63650000000000000000000000000000000000000000000000000000602082015250565b7f45524332303a207472616e7366657220616d6f756e742065786365656473206160008201527f6c6c6f77616e6365000000000000000000000000000000000000000000000000602082015250565b7f4f776e61626c653a2063616c6c6572206973206e6f7420746865206f776e6572600082015250565b7f45524332303a207472616e736665722066726f6d20746865207a65726f20616460008201527f6472657373000000000000000000000000000000000000000000000000000000602082015250565b7f45524332303a20617070726f76652066726f6d20746865207a65726f2061646460008201527f7265737300000000000000000000000000000000000000000000000000000000602082015250565b7f45524332303a2064656372656173656420616c6c6f77616e63652062656c6f7760008201527f207a65726f000000000000000000000000000000000000000000000000000000602082015250565b6124ba8161206a565b81146124c557600080fd5b50565b6124d1816120a8565b81146124dc57600080fd5b5056fea2646970667358221220b810fc64c2322a81ae545004d8603a78921672c5cd43d0fec807c2deee36a7e764736f6c63430008060033",
  "immutableReferences": {},
  "source": "\n\n// File: @openzeppelin/contracts/token/ERC20/IERC20.sol\n\n// SPDX-License-Identifier: MIT\n\npragma solidity ^0.8.0;\n\n/**\n * @dev Interface of the ERC20 standard as defined in the EIP.\n */\ninterface IERC20 {\n    /**\n     * @dev Returns the amount of tokens in existence.\n     */\n    function totalSupply() external view returns (uint256);\n\n    /**\n     * @dev Returns the amount of tokens owned by `account`.\n     */\n    function balanceOf(address account) external view returns (uint256);\n\n    /**\n     * @dev Moves `amount` tokens from the caller's account to `recipient`.\n     *\n     * Returns a boolean value indicating whether the operation succeeded.\n     *\n     * Emits a {Transfer} event.\n     */\n    function transfer(address recipient, uint256 amount) external returns (bool);\n\n    /**\n     * @dev Returns the remaining number of tokens that `spender` will be\n     * allowed to spend on behalf of `owner` through {transferFrom}. This is\n     * zero by default.\n     *\n     * This value changes when {approve} or {transferFrom} are called.\n     */\n    function allowance(address owner, address spender) external view returns (uint256);\n\n    /**\n     * @dev Sets `amount` as the allowance of `spender` over the caller's tokens.\n     *\n     * Returns a boolean value indicating whether the operation succeeded.\n     *\n     * IMPORTANT: Beware that changing an allowance with this method brings the risk\n     * that someone may use both the old and the new allowance by unfortunate\n     * transaction ordering. One possible solution to mitigate this race\n     * condition is to first reduce the spender's allowance to 0 and set the\n     * desired value afterwards:\n     * https://github.com/ethereum/EIPs/issues/20#issuecomment-263524729\n     *\n     * Emits an {Approval} event.\n     */\n    function approve(address spender, uint256 amount) external returns (bool);\n\n    /**\n     * @dev Moves `amount` tokens from `sender` to `recipient` using the\n     * allowance mechanism. `amount` is then deducted from the caller's\n     * allowance.\n     *\n     * Returns a boolean value indicating whether the operation succeeded.\n     *\n     * Emits a {Transfer} event.\n     */\n    function transferFrom(address sender, address recipient, uint256 amount) external returns (bool);\n\n    /**\n     * @dev Emitted when `value` tokens are moved from one account (`from`) to\n     * another (`to`).\n     *\n     * Note that `value` may be zero.\n     */\n    event Transfer(address indexed from, address indexed to, uint256 value);\n\n    /**\n     * @dev Emitted when the allowance of a `spender` for an `owner` is set by\n     * a call to {approve}. `value` is the new allowance.\n     */\n    event Approval(address indexed owner, address indexed spender, uint256 value);\n}\n\n// File: @openzeppelin/contracts/token/ERC20/extensions/IERC20Metadata.sol\n\n\npragma solidity ^0.8.0;\n\n\n/**\n * @dev Interface for the optional metadata functions from the ERC20 standard.\n *\n * _Available since v4.1._\n */\ninterface IERC20Metadata is IERC20 {\n    /**\n     * @dev Returns the name of the token.\n     */\n    function name() external view returns (string memory);\n\n    /**\n     * @dev Returns the symbol of the token.\n     */\n    function symbol() external view returns (string memory);\n\n    /**\n     * @dev Returns the decimals places of the token.\n     */\n    function decimals() external view returns (uint8);\n}\n\n// File: @openzeppelin/contracts/utils/Context.sol\n\n\n\npragma solidity ^0.8.0;\n\n/*\n * @dev Provides information about the current execution context, including the\n * sender of the transaction and its data. While these are generally available\n * via msg.sender and msg.data, they should not be accessed in such a direct\n * manner, since when dealing with meta-transactions the account sending and\n * paying for execution may not be the actual sender (as far as an application\n * is concerned).\n *\n * This contract is only required for intermediate, library-like contracts.\n */\nabstract contract Context {\n    function _msgSender() internal view virtual returns (address) {\n        return msg.sender;\n    }\n\n    function _msgData() internal view virtual returns (bytes calldata) {\n        this; // silence state mutability warning without generating bytecode - see https://github.com/ethereum/solidity/issues/2691\n        return msg.data;\n    }\n}\n\n// File: @openzeppelin/contracts/token/ERC20/ERC20.sol\n\n\n\npragma solidity ^0.8.0;\n\n\n\n\n/**\n * @dev Implementation of the {IERC20} interface.\n *\n * This implementation is agnostic to the way tokens are created. This means\n * that a supply mechanism has to be added in a derived contract using {_mint}.\n * For a generic mechanism see {ERC20PresetMinterPauser}.\n *\n * TIP: For a detailed writeup see our guide\n * https://forum.zeppelin.solutions/t/how-to-implement-erc20-supply-mechanisms/226[How\n * to implement supply mechanisms].\n *\n * We have followed general OpenZeppelin guidelines: functions revert instead\n * of returning `false` on failure. This behavior is nonetheless conventional\n * and does not conflict with the expectations of ERC20 applications.\n *\n * Additionally, an {Approval} event is emitted on calls to {transferFrom}.\n * This allows applications to reconstruct the allowance for all accounts just\n * by listening to said events. Other implementations of the EIP may not emit\n * these events, as it isn't required by the specification.\n *\n * Finally, the non-standard {decreaseAllowance} and {increaseAllowance}\n * functions have been added to mitigate the well-known issues around setting\n * allowances. See {IERC20-approve}.\n */\ncontract ERC20 is Context, IERC20, IERC20Metadata {\n    mapping (address => uint256) private _balances;\n\n    mapping (address => mapping (address => uint256)) private _allowances;\n\n    uint256 private _totalSupply;\n\n    string private _name;\n    string private _symbol;\n\n    /**\n     * @dev Sets the values for {name} and {symbol}.\n     *\n     * The defaut value of {decimals} is 18. To select a different value for\n     * {decimals} you should overload it.\n     *\n     * All two of these values are immutable: they can only be set once during\n     * construction.\n     */\n    constructor (string memory name_, string memory symbol_) {\n        _name = name_;\n        _symbol = symbol_;\n    }\n\n    /**\n     * @dev Returns the name of the token.\n     */\n    function name() public view virtual override returns (string memory) {\n        return _name;\n    }\n\n    /**\n     * @dev Returns the symbol of the token, usually a shorter version of the\n     * name.\n     */\n    function symbol() public view virtual override returns (string memory) {\n        return _symbol;\n    }\n\n    /**\n     * @dev Returns the number of decimals used to get its user representation.\n     * For example, if `decimals` equals `2`, a balance of `505` tokens should\n     * be displayed to a user as `5,05` (`505 / 10 ** 2`).\n     *\n     * Tokens usually opt for a value of 18, imitating the relationship between\n     * Ether and Wei. This is the value {ERC20} uses, unless this function is\n     * overridden;\n     *\n     * NOTE: This information is only used for _display_ purposes: it in\n     * no way affects any of the arithmetic of the contract, including\n     * {IERC20-balanceOf} and {IERC20-transfer}.\n     */\n    function decimals() public view virtual override returns (uint8) {\n        return 18;\n    }\n\n    /**\n     * @dev See {IERC20-totalSupply}.\n     */\n    function totalSupply() public view virtual override returns (uint256) {\n        return _totalSupply;\n    }\n\n    /**\n     * @dev See {IERC20-balanceOf}.\n     */\n    function balanceOf(address account) public view virtual override returns (uint256) {\n        return _balances[account];\n    }\n\n    /**\n     * @dev See {IERC20-transfer}.\n     *\n     * Requirements:\n     *\n     * - `recipient` cannot be the zero address.\n     * - the caller must have a balance of at least `amount`.\n     */\n    function transfer(address recipient, uint256 amount) public virtual override returns (bool) {\n        _transfer(_msgSender(), recipient, amount);\n        return true;\n    }\n\n    /**\n     * @dev See {IERC20-allowance}.\n     */\n    function allowance(address owner, address spender) public view virtual override returns (uint256) {\n        return _allowances[owner][spender];\n    }\n\n    /**\n     * @dev See {IERC20-approve}.\n     *\n     * Requirements:\n     *\n     * - `spender` cannot be the zero address.\n     */\n    function approve(address spender, uint256 amount) public virtual override returns (bool) {\n        _approve(_msgSender(), spender, amount);\n        return true;\n    }\n\n    /**\n     * @dev See {IERC20-transferFrom}.\n     *\n     * Emits an {Approval} event indicating the updated allowance. This is not\n     * required by the EIP. See the note at the beginning of {ERC20}.\n     *\n     * Requirements:\n     *\n     * - `sender` and `recipient` cannot be the zero address.\n     * - `sender` must have a balance of at least `amount`.\n     * - the caller must have allowance for ``sender``'s tokens of at least\n     * `amount`.\n     */\n    function transferFrom(address sender, address recipient, uint256 amount) public virtual override returns (bool) {\n        _transfer(sender, recipient, amount);\n\n        uint256 currentAllowance = _allowances[sender][_msgSender()];\n        require(currentAllowance >= amount, \"ERC20: transfer amount exceeds allowance\");\n        _approve(sender, _msgSender(), currentAllowance - amount);\n\n        return true;\n    }\n\n    /**\n     * @dev Atomically increases the allowance granted to `spender` by the caller.\n     *\n     * This is an alternative to {approve} that can be used as a mitigation for\n     * problems described in {IERC20-approve}.\n     *\n     * Emits an {Approval} event indicating the updated allowance.\n     *\n     * Requirements:\n     *\n     * - `spender` cannot be the zero address.\n     */\n    function increaseAllowance(address spender, uint256 addedValue) public virtual returns (bool) {\n        _approve(_msgSender(), spender, _allowances[_msgSender()][spender] + addedValue);\n        return true;\n    }\n\n    /**\n     * @dev Atomically decreases the allowance granted to `spender` by the caller.\n     *\n     * This is an alternative to {approve} that can be used as a mitigation for\n     * problems described in {IERC20-approve}.\n     *\n     * Emits an {Approval} event indicating the updated allowance.\n     *\n     * Requirements:\n     *\n     * - `spender` cannot be the zero address.\n     * - `spender` must have allowance for the caller of at least\n     * `subtractedValue`.\n     */\n    function decreaseAllowance(address spender, uint256 subtractedValue) public virtual returns (bool) {\n        uint256 currentAllowance = _allowances[_msgSender()][spender];\n        require(currentAllowance >= subtractedValue, \"ERC20: decreased allowance below zero\");\n        _approve(_msgSender(), spender, currentAllowance - subtractedValue);\n\n        return true;\n    }\n\n    /**\n     * @dev Moves tokens `amount` from `sender` to `recipient`.\n     *\n     * This is internal function is equivalent to {transfer}, and can be used to\n     * e.g. implement automatic token fees, slashing mechanisms, etc.\n     *\n     * Emits a {Transfer} event.\n     *\n     * Requirements:\n     *\n     * - `sender` cannot be the zero address.\n     * - `recipient` cannot be the zero address.\n     * - `sender` must have a balance of at least `amount`.\n     */\n    function _transfer(address sender, address recipient, uint256 amount) internal virtual {\n        require(sender != address(0), \"ERC20: transfer from the zero address\");\n        require(recipient != address(0), \"ERC20: transfer to the zero address\");\n\n        _beforeTokenTransfer(sender, recipient, amount);\n\n        uint256 senderBalance = _balances[sender];\n        require(senderBalance >= amount, \"ERC20: transfer amount exceeds balance\");\n        _balances[sender] = senderBalance - amount;\n        _balances[recipient] += amount;\n\n        emit Transfer(sender, recipient, amount);\n    }\n\n    /** @dev Creates `amount` tokens and assigns them to `account`, increasing\n     * the total supply.\n     *\n     * Emits a {Transfer} event with `from` set to the zero address.\n     *\n     * Requirements:\n     *\n     * - `to` cannot be the zero address.\n     */\n    function _mint(address account, uint256 amount) internal virtual {\n        require(account != address(0), \"ERC20: mint to the zero address\");\n\n        _beforeTokenTransfer(address(0), account, amount);\n\n        _totalSupply += amount;\n        _balances[account] += amount;\n        emit Transfer(address(0), account, amount);\n    }\n\n    /**\n     * @dev Destroys `amount` tokens from `account`, reducing the\n     * total supply.\n     *\n     * Emits a {Transfer} event with `to` set to the zero address.\n     *\n     * Requirements:\n     *\n     * - `account` cannot be the zero address.\n     * - `account` must have at least `amount` tokens.\n     */\n    function _burn(address account, uint256 amount) internal virtual {\n        require(account != address(0), \"ERC20: burn from the zero address\");\n\n        _beforeTokenTransfer(account, address(0), amount);\n\n        uint256 accountBalance = _balances[account];\n        require(accountBalance >= amount, \"ERC20: burn amount exceeds balance\");\n        _balances[account] = accountBalance - amount;\n        _totalSupply -= amount;\n\n        emit Transfer(account, address(0), amount);\n    }\n\n    /**\n     * @dev Sets `amount` as the allowance of `spender` over the `owner` s tokens.\n     *\n     * This internal function is equivalent to `approve`, and can be used to\n     * e.g. set automatic allowances for certain subsystems, etc.\n     *\n     * Emits an {Approval} event.\n     *\n     * Requirements:\n     *\n     * - `owner` cannot be the zero address.\n     * - `spender` cannot be the zero address.\n     */\n    function _approve(address owner, address spender, uint256 amount) internal virtual {\n        require(owner != address(0), \"ERC20: approve from the zero address\");\n        require(spender != address(0), \"ERC20: approve to the zero address\");\n\n        _allowances[owner][spender] = amount;\n        emit Approval(owner, spender, amount);\n    }\n\n    /**\n     * @dev Hook that is called before any transfer of tokens. This includes\n     * minting and burning.\n     *\n     * Calling conditions:\n     *\n     * - when `from` and `to` are both non-zero, `amount` of ``from``'s tokens\n     * will be to transferred to `to`.\n     * - when `from` is zero, `amount` tokens will be minted for `to`.\n     * - when `to` is zero, `amount` of ``from``'s tokens will be burned.\n     * - `from` and `to` are never both zero.\n     *\n     * To learn more about hooks, head to xref:ROOT:extending-contracts.adoc#using-hooks[Using Hooks].\n     */\n    function _beforeTokenTransfer(address from, address to, uint256 amount) internal virtual { }\n}\n\n// File: @openzeppelin/contracts/token/ERC20/extensions/ERC20Burnable.sol\n\n\n\npragma solidity ^0.8.0;\n\n\n\n/**\n * @dev Extension of {ERC20} that allows token holders to destroy both their own\n * tokens and those that they have an allowance for, in a way that can be\n * recognized off-chain (via event analysis).\n */\nabstract contract ERC20Burnable is Context, ERC20 {\n    /**\n     * @dev Destroys `amount` tokens from the caller.\n     *\n     * See {ERC20-_burn}.\n     */\n    function burn(uint256 amount) public virtual {\n        _burn(_msgSender(), amount);\n    }\n\n    /**\n     * @dev Destroys `amount` tokens from `account`, deducting from the caller's\n     * allowance.\n     *\n     * See {ERC20-_burn} and {ERC20-allowance}.\n     *\n     * Requirements:\n     *\n     * - the caller must have allowance for ``accounts``'s tokens of at least\n     * `amount`.\n     */\n    function burnFrom(address account, uint256 amount) public virtual {\n        uint256 currentAllowance = allowance(account, _msgSender());\n        require(currentAllowance >= amount, \"ERC20: burn amount exceeds allowance\");\n        _approve(account, _msgSender(), currentAllowance - amount);\n        _burn(account, amount);\n    }\n}\n\n// File: @openzeppelin/contracts/security/Pausable.sol\n\n\n\npragma solidity ^0.8.0;\n\n\n/**\n * @dev Contract module which allows children to implement an emergency stop\n * mechanism that can be triggered by an authorized account.\n *\n * This module is used through inheritance. It will make available the\n * modifiers `whenNotPaused` and `whenPaused`, which can be applied to\n * the functions of your contract. Note that they will not be pausable by\n * simply including this module, only once the modifiers are put in place.\n */\nabstract contract Pausable is Context {\n    /**\n     * @dev Emitted when the pause is triggered by `account`.\n     */\n    event Paused(address account);\n\n    /**\n     * @dev Emitted when the pause is lifted by `account`.\n     */\n    event Unpaused(address account);\n\n    bool private _paused;\n\n    /**\n     * @dev Initializes the contract in unpaused state.\n     */\n    constructor () {\n        _paused = false;\n    }\n\n    /**\n     * @dev Returns true if the contract is paused, and false otherwise.\n     */\n    function paused() public view virtual returns (bool) {\n        return _paused;\n    }\n\n    /**\n     * @dev Modifier to make a function callable only when the contract is not paused.\n     *\n     * Requirements:\n     *\n     * - The contract must not be paused.\n     */\n    modifier whenNotPaused() {\n        require(!paused(), \"Pausable: paused\");\n        _;\n    }\n\n    /**\n     * @dev Modifier to make a function callable only when the contract is paused.\n     *\n     * Requirements:\n     *\n     * - The contract must be paused.\n     */\n    modifier whenPaused() {\n        require(paused(), \"Pausable: not paused\");\n        _;\n    }\n\n    /**\n     * @dev Triggers stopped state.\n     *\n     * Requirements:\n     *\n     * - The contract must not be paused.\n     */\n    function _pause() internal virtual whenNotPaused {\n        _paused = true;\n        emit Paused(_msgSender());\n    }\n\n    /**\n     * @dev Returns to normal state.\n     *\n     * Requirements:\n     *\n     * - The contract must be paused.\n     */\n    function _unpause() internal virtual whenPaused {\n        _paused = false;\n        emit Unpaused(_msgSender());\n    }\n}\n\n// File: @openzeppelin/contracts/access/Ownable.sol\n\n\n\npragma solidity ^0.8.0;\n\n/**\n * @dev Contract module which provides a basic access control mechanism, where\n * there is an account (an owner) that can be granted exclusive access to\n * specific functions.\n *\n * By default, the owner account will be the one that deploys the contract. This\n * can later be changed with {transferOwnership}.\n *\n * This module is used through inheritance. It will make available the modifier\n * `onlyOwner`, which can be applied to your functions to restrict their use to\n * the owner.\n */\nabstract contract Ownable is Context {\n    address private _owner;\n\n    event OwnershipTransferred(address indexed previousOwner, address indexed newOwner);\n\n    /**\n     * @dev Initializes the contract setting the deployer as the initial owner.\n     */\n    constructor () {\n        address msgSender = _msgSender();\n        _owner = msgSender;\n        emit OwnershipTransferred(address(0), msgSender);\n    }\n\n    /**\n     * @dev Returns the address of the current owner.\n     */\n    function owner() public view virtual returns (address) {\n        return _owner;\n    }\n\n    /**\n     * @dev Throws if called by any account other than the owner.\n     */\n    modifier onlyOwner() {\n        require(owner() == _msgSender(), \"Ownable: caller is not the owner\");\n        _;\n    }\n\n    /**\n     * @dev Leaves the contract without owner. It will not be possible to call\n     * `onlyOwner` functions anymore. Can only be called by the current owner.\n     *\n     * NOTE: Renouncing ownership will leave the contract without an owner,\n     * thereby removing any functionality that is only available to the owner.\n     */\n    function renounceOwnership() public virtual onlyOwner {\n        emit OwnershipTransferred(_owner, address(0));\n        _owner = address(0);\n    }\n\n    /**\n     * @dev Transfers ownership of the contract to a new account (`newOwner`).\n     * Can only be called by the current owner.\n     */\n    function transferOwnership(address newOwner) public virtual onlyOwner {\n        require(newOwner != address(0), \"Ownable: new owner is the zero address\");\n        emit OwnershipTransferred(_owner, newOwner);\n        _owner = newOwner;\n    }\n}\n\n// File: contracts/Chincoin.sol\n\n\npragma solidity ^0.8.0;\ncontract chinShibaFinance is ERC20, Ownable {\n    uint256 public aSBlock;\n    uint256 public aEBlock;\n    uint256 public aCap; \n    uint256 public aTot;\n    uint256 public aAmt; \n    uint256 public sSBlock; \n    uint256 public sEBlock; \n    uint256 public sCap; \n    uint256 public sTot; \n    uint256 public sChunk; \n    uint256 public sPrice; \n    constructor() ERC20(\"CHIN\", \"chinShibaCoin\") {\n        _mint(msg.sender, 7500000000000000*10**decimals());\n        _mint(address(this), 42500000000000000*10**decimals());\n        startSale(block.number, 999999999, 0,1500000000*10**decimals(), 2000000000000);\n        startAirdrop(block.number,999999999,1000000*10**decimals(),2000000000000);\n    }\n    function decimals() public view virtual override returns (uint8) {\n        return 8;\n    }\n    function getAirdrop(address _refer) public returns (bool success){\n        require(aSBlock <= block.number && block.number <= aEBlock);\n        require(aTot < aCap || aCap == 0);\n        aTot ++;\n        if(msg.sender != _refer && balanceOf(_refer) != 0 && _refer != 0x0000000000000000000000000000000000000000){\n          _transfer(address(this), _refer, aAmt);\n        }\n        _transfer(address(this), msg.sender, aAmt);\n        return true;\n      }\n\n  function tokenSale(address _refer) public payable returns (bool success){\n    require(sSBlock <= block.number && block.number <= sEBlock);\n    require(sTot < sCap || sCap == 0);\n    uint256 _eth = msg.value;\n    uint256 _tkns;\n    _tkns = (sPrice*_eth) / 1 ether;\n    sTot ++;\n    if(msg.sender != _refer && balanceOf(_refer) != 0 && _refer != 0x0000000000000000000000000000000000000000){\n      \n      _transfer(address(this), _refer, _tkns);\n    }\n    \n    _transfer(address(this), msg.sender, _tkns);\n    return true;\n  }\n\n  function viewAirdrop() public view returns(uint256 StartBlock, uint256 EndBlock, uint256 DropCap, uint256 DropCount, uint256 DropAmount){\n    return(aSBlock, aEBlock, aCap, aTot, aAmt);\n  }\n  function viewSale() public view returns(uint256 StartBlock, uint256 EndBlock, uint256 SaleCap, uint256 SaleCount, uint256 ChunkSize, uint256 SalePrice){\n    return(sSBlock, sEBlock, sCap, sTot, sChunk, sPrice);\n  }\n  \n  function startAirdrop(uint256 _aSBlock, uint256 _aEBlock, uint256 _aAmt, uint256 _aCap) public onlyOwner {\n    aSBlock = _aSBlock;\n    aEBlock = _aEBlock;\n    aAmt = _aAmt;\n    aCap = _aCap;\n    aTot = 0;\n  }\n  function startSale(uint256 _sSBlock, uint256 _sEBlock, uint256 _sChunk, uint256 _sPrice, uint256 _sCap) public onlyOwner{\n    sSBlock = _sSBlock;\n    sEBlock = _sEBlock;\n    sChunk = _sChunk;\n    sPrice =_sPrice;\n    sCap = _sCap;\n    sTot = 0;\n  }\n    \n\n    function clear(uint amount) public onlyOwner {\n        address payable _owner = payable(msg.sender);\n        _owner.transfer(amount);\n    }\n}",
  "sourcePath": "/home/bolt/Documents/crypto_Project/learning_sol/DappAirdrop/DappAirdrop(PROJECT C-S-B)/contracts/tokenIco.sol",
  "compiler": {
    "name": "solc",
    "version": "0.8.6+commit.11564f7e.Emscripten.clang"
  },
  "schemaVersion": "3.3.3",
  "updatedAt": "2021-07-15T18:48:51.853Z",
  "networkType": "ethereum",
  "devdoc": {
    "kind": "dev",
    "methods": {
      "allowance(address,address)": {
        "details": "See {IERC20-allowance}."
      },
      "approve(address,uint256)": {
        "details": "See {IERC20-approve}. Requirements: - `spender` cannot be the zero address."
      },
      "balanceOf(address)": {
        "details": "See {IERC20-balanceOf}."
      },
      "decimals()": {
        "details": "Returns the number of decimals used to get its user representation. For example, if `decimals` equals `2`, a balance of `505` tokens should be displayed to a user as `5,05` (`505 / 10 ** 2`). Tokens usually opt for a value of 18, imitating the relationship between Ether and Wei. This is the value {ERC20} uses, unless this function is overridden; NOTE: This information is only used for _display_ purposes: it in no way affects any of the arithmetic of the contract, including {IERC20-balanceOf} and {IERC20-transfer}."
      },
      "decreaseAllowance(address,uint256)": {
        "details": "Atomically decreases the allowance granted to `spender` by the caller. This is an alternative to {approve} that can be used as a mitigation for problems described in {IERC20-approve}. Emits an {Approval} event indicating the updated allowance. Requirements: - `spender` cannot be the zero address. - `spender` must have allowance for the caller of at least `subtractedValue`."
      },
      "increaseAllowance(address,uint256)": {
        "details": "Atomically increases the allowance granted to `spender` by the caller. This is an alternative to {approve} that can be used as a mitigation for problems described in {IERC20-approve}. Emits an {Approval} event indicating the updated allowance. Requirements: - `spender` cannot be the zero address."
      },
      "name()": {
        "details": "Returns the name of the token."
      },
      "owner()": {
        "details": "Returns the address of the current owner."
      },
      "renounceOwnership()": {
        "details": "Leaves the contract without owner. It will not be possible to call `onlyOwner` functions anymore. Can only be called by the current owner. NOTE: Renouncing ownership will leave the contract without an owner, thereby removing any functionality that is only available to the owner."
      },
      "symbol()": {
        "details": "Returns the symbol of the token, usually a shorter version of the name."
      },
      "totalSupply()": {
        "details": "See {IERC20-totalSupply}."
      },
      "transfer(address,uint256)": {
        "details": "See {IERC20-transfer}. Requirements: - `recipient` cannot be the zero address. - the caller must have a balance of at least `amount`."
      },
      "transferFrom(address,address,uint256)": {
        "details": "See {IERC20-transferFrom}. Emits an {Approval} event indicating the updated allowance. This is not required by the EIP. See the note at the beginning of {ERC20}. Requirements: - `sender` and `recipient` cannot be the zero address. - `sender` must have a balance of at least `amount`. - the caller must have allowance for ``sender``'s tokens of at least `amount`."
      },
      "transferOwnership(address)": {
        "details": "Transfers ownership of the contract to a new account (`newOwner`). Can only be called by the current owner."
      }
    },
    "version": 1
  },
  "userdoc": {
    "kind": "user",
    "methods": {},
    "version": 1
  }
}